{
  "contractName": "Faucet",
  "abi": [
    {
      "inputs": [],
      "name": "numOfFunders",
      "outputs": [
        {
          "internalType": "uint256",
          "name": "",
          "type": "uint256"
        }
      ],
      "stateMutability": "view",
      "type": "function",
      "constant": true
    },
    {
      "inputs": [],
      "name": "owner",
      "outputs": [
        {
          "internalType": "address",
          "name": "",
          "type": "address"
        }
      ],
      "stateMutability": "view",
      "type": "function",
      "constant": true
    },
    {
      "inputs": [],
      "name": "test3",
      "outputs": [
        {
          "internalType": "uint256",
          "name": "",
          "type": "uint256"
        }
      ],
      "stateMutability": "pure",
      "type": "function",
      "constant": true
    },
    {
      "inputs": [],
      "name": "testNum",
      "outputs": [
        {
          "internalType": "uint256",
          "name": "",
          "type": "uint256"
        }
      ],
      "stateMutability": "view",
      "type": "function",
      "constant": true
    },
    {
      "stateMutability": "payable",
      "type": "receive",
      "payable": true
    },
    {
      "inputs": [],
      "name": "emitLog",
      "outputs": [
        {
          "internalType": "bytes32",
          "name": "",
          "type": "bytes32"
        }
      ],
      "stateMutability": "pure",
      "type": "function",
      "constant": true
    },
    {
      "inputs": [],
      "name": "addFunds",
      "outputs": [],
      "stateMutability": "payable",
      "type": "function",
      "payable": true
    },
    {
      "inputs": [
        {
          "internalType": "uint256",
          "name": "withdrawlAmount",
          "type": "uint256"
        }
      ],
      "name": "withdrawl",
      "outputs": [],
      "stateMutability": "nonpayable",
      "type": "function"
    },
    {
      "inputs": [
        {
          "internalType": "uint8",
          "name": "index",
          "type": "uint8"
        }
      ],
      "name": "getFunderAtIndex",
      "outputs": [
        {
          "internalType": "address",
          "name": "",
          "type": "address"
        }
      ],
      "stateMutability": "view",
      "type": "function",
      "constant": true
    },
    {
      "inputs": [],
      "name": "getAllFunders",
      "outputs": [
        {
          "internalType": "address[]",
          "name": "",
          "type": "address[]"
        }
      ],
      "stateMutability": "view",
      "type": "function",
      "constant": true
    }
  ],
  "bytecode": "0x608060405234801561001057600080fd5b50336000806101000a81548173ffffffffffffffffffffffffffffffffffffffff021916908373ffffffffffffffffffffffffffffffffffffffff1602179055506103e8600181905550610952806100696000396000f3fe60806040526004361061008a5760003560e01c8063a26759cb11610059578063a26759cb14610154578063ae28f1ed1461015e578063af7f2c9b14610189578063e4480dd8146101b4578063f42c13bf146101dd57610091565b80630a8e8e01146100965780630a93cf33146100c15780636fbbb55d146100fe5780638da5cb5b1461012957610091565b3661009157005b600080fd5b3480156100a257600080fd5b506100ab610208565b6040516100b8919061076f565b60405180910390f35b3480156100cd57600080fd5b506100e860048036038101906100e391906105f9565b610211565b6040516100f591906106f7565b60405180910390f35b34801561010a57600080fd5b50610113610251565b6040516101209190610712565b60405180910390f35b34801561013557600080fd5b5061013e610397565b60405161014b91906106f7565b60405180910390f35b61015c6103bb565b005b34801561016a57600080fd5b506101736104db565b604051610180919061076f565b60405180910390f35b34801561019557600080fd5b5061019e6104e1565b6040516101ab919061076f565b60405180910390f35b3480156101c057600080fd5b506101db60048036038101906101d691906105d0565b6104e7565b005b3480156101e957600080fd5b506101f261057e565b6040516101ff9190610734565b60405180910390f35b60006064905090565b6000600460008360ff16815260200190815260200160002060009054906101000a900473ffffffffffffffffffffffffffffffffffffffff169050919050565b6060600060025467ffffffffffffffff811115610297577f4e487b7100000000000000000000000000000000000000000000000000000000600052604160045260246000fd5b6040519080825280602002602001820160405280156102c55781602001602082028036833780820191505090505b50905060005b60025481101561038f576004600082815260200190815260200160002060009054906101000a900473ffffffffffffffffffffffffffffffffffffffff16828281518110610342577f4e487b7100000000000000000000000000000000000000000000000000000000600052603260045260246000fd5b602002602001019073ffffffffffffffffffffffffffffffffffffffff16908173ffffffffffffffffffffffffffffffffffffffff1681525050808061038790610827565b9150506102cb565b508091505090565b60008054906101000a900473ffffffffffffffffffffffffffffffffffffffff1681565b6000339050600360008273ffffffffffffffffffffffffffffffffffffffff1673ffffffffffffffffffffffffffffffffffffffff16815260200190815260200160002060009054906101000a900460ff166104d85760006002600081548092919061042690610827565b9190505590506001600360008473ffffffffffffffffffffffffffffffffffffffff1673ffffffffffffffffffffffffffffffffffffffff16815260200190815260200160002060006101000a81548160ff021916908315150217905550816004600083815260200190815260200160002060006101000a81548173ffffffffffffffffffffffffffffffffffffffff021916908373ffffffffffffffffffffffffffffffffffffffff160217905550505b50565b60015481565b60025481565b8067016345785d8a0000811115610533576040517f08c379a000000000000000000000000000000000000000000000000000000000815260040161052a9061074f565b60405180910390fd5b3373ffffffffffffffffffffffffffffffffffffffff166108fc839081150290604051600060405180830381858888f19350505050158015610579573d6000803e3d6000fd5b505050565b60007f4865792073696d706c65746f6e00000000000000000000000000000000000000905090565b6000813590506105b5816108ee565b92915050565b6000813590506105ca81610905565b92915050565b6000602082840312156105e257600080fd5b60006105f0848285016105a6565b91505092915050565b60006020828403121561060b57600080fd5b6000610619848285016105bb565b91505092915050565b600061062e838361063a565b60208301905092915050565b610643816107d4565b82525050565b610652816107d4565b82525050565b60006106638261079a565b61066d81856107b2565b93506106788361078a565b8060005b838110156106a95781516106908882610622565b975061069b836107a5565b92505060018101905061067c565b5085935050505092915050565b6106bf816107e6565b82525050565b60006106d2603a836107c3565b91506106dd8261089f565b604082019050919050565b6106f181610810565b82525050565b600060208201905061070c6000830184610649565b92915050565b6000602082019050818103600083015261072c8184610658565b905092915050565b600060208201905061074960008301846106b6565b92915050565b60006020820190508181036000830152610768816106c5565b9050919050565b600060208201905061078460008301846106e8565b92915050565b6000819050602082019050919050565b600081519050919050565b6000602082019050919050565b600082825260208201905092915050565b600082825260208201905092915050565b60006107df826107f0565b9050919050565b6000819050919050565b600073ffffffffffffffffffffffffffffffffffffffff82169050919050565b6000819050919050565b600060ff82169050919050565b600061083282610810565b91507fffffffffffffffffffffffffffffffffffffffffffffffffffffffffffffffff82141561086557610864610870565b5b600182019050919050565b7f4e487b7100000000000000000000000000000000000000000000000000000000600052601160045260246000fd5b7f57697468647261776c206c696d69742069732031204554482e20506c6561736560008201527f2077697468647261776c2061206c6f77657220616d6f756e742e000000000000602082015250565b6108f781610810565b811461090257600080fd5b50565b61090e8161081a565b811461091957600080fd5b5056fea264697066735822122011d6120f39ad88bd99b468ed44d51ef2352a6a7ba22758b9ea93ea513df4783264736f6c63430008040033",
  "immutableReferences": {},
  "source": "//SPDX-License-Identifier: MIT\r\npragma solidity >=0.4.22 < 0.9.0;\r\n\r\nimport \"./Owned.sol\";\r\nimport \"./Logger.sol\";\r\nimport \"./IFaucet.sol\";\r\n\r\ncontract Faucet is Owned, Logger, IFaucet {\r\n    uint public numOfFunders;\r\n    \r\n    mapping(address => bool) private funders;\r\n    mapping(uint => address) private lutFunders;\r\n\r\n    modifier limitWithdrawl(uint withdrawlAmount){\r\n        require(withdrawlAmount <= 100000000000000000, \"Withdrawl limit is 1 ETH. Please withdrawl a lower amount.\");\r\n        _;\r\n    }\r\n\r\n    receive() external payable {}\r\n\r\n    function emitLog() public override pure returns(bytes32){\r\n        return \"Hey simpleton\";\r\n    }\r\n\r\n    function addFunds() payable override external {\r\n        address funder = msg.sender;\r\n    \r\n\r\n        if(!funders[funder]){\r\n            uint index = numOfFunders++;\r\n            funders[funder] = true;\r\n            lutFunders[index] = funder;\r\n        }\r\n    }\r\n\r\n    function withdrawl(uint withdrawlAmount) external override limitWithdrawl(withdrawlAmount) {\r\n            payable(msg.sender).transfer(withdrawlAmount);   \r\n    }\r\n\r\n    function getFunderAtIndex(uint8 index) external view returns(address){\r\n        return lutFunders[index];\r\n    }\r\n\r\n    function getAllFunders() external view returns (address[] memory){\r\n        address[] memory _funders = new address[](numOfFunders);\r\n        for (uint i = 0; i < numOfFunders; i++) {\r\n            _funders[i] = lutFunders[i];\r\n        }\r\n            return _funders;\r\n    }\r\n}\r\n\r\n",
  "sourcePath": "C:\\Users\\bodiA\\Desktop\\blockchain\\reactApp1\\app1\\contracts\\FaucetContract.sol",
  "compiler": {
    "name": "solc",
    "version": "0.8.4+commit.c7e474f2.Emscripten.clang"
  },
  "schemaVersion": "3.4.3",
  "updatedAt": "2021-12-12T20:46:00.092Z",
  "networkType": "ethereum",
  "devdoc": {
    "kind": "dev",
    "methods": {},
    "version": 1
  },
  "userdoc": {
    "kind": "user",
    "methods": {},
    "version": 1
  }
}